:04000000BDEF08F058
:101000000000236E000E226E040E23640AEF08F027
:101010000CEF08F033EF08F0010E226E48EF08F0F5
:101020002350020DF3500B0FD96EDA6ADECF20F099
:10103000DDCF21F020C0D9FF21C0DAFFFF0EDF6E27
:1010400048EF08F02350020DF3500B0FD96EDA6A07
:10105000DECF20F0DDCF21F020C0D9FF21C0DAFFA4
:10106000DF6A48EF08F01F50206E216A2150000A05
:10107000D8B43DEF08F00CEF08F02050000AD8B4C7
:1010800022EF08F0010AD8B410EF08F00CEF08F0D6
:1010900022501200236E000E226E040E236453EFC2
:1010A00008F055EF08F07CEF08F0010E226E91EF8A
:1010B00008F02350020DF350150FD96EDA6ADECF17
:1010C00020F0DDCF21F020C0D9FF21C0DAFFDF6A98
:1010D00091EF08F02350020DF350150FD96EDA6A24
:1010E000DECF20F0DDCF21F020C0D9FF21C0DAFF14
:1010F000FF0EDF6E91EF08F01F50206E216A215025
:10110000000AD8B486EF08F055EF08F02050000A26
:10111000D8B459EF08F0010AD8B46AEF08F055EFD7
:1011200008F022501200000E1F6E020E4AEC08F06A
:10113000256E010E1F6E020E01EC08F0256E010EE9
:101140001F6E020E01EC08F0256E820E246EDE0E7C
:10115000E82EFED7242EFCD7000E1F6E020E01ECE7
:1011600008F0256E820E246EDE0EE82EFED7242EA9
:10117000FCD79FEF08F000EF00F0A40EF66E110E02
:10118000F76E000EF86E00EE01F010EE1EF0090092
:10119000F5CFEEFFE550E150FAE1000EF86E0001E8
:1011A00093EF08F0800F810F820F830F840F890F58
:1011B0008A0F8B0F8C0F8D0F920F930F940F950F3B
:0211C000960F88
:020000040030CA
:0E000000FF02091EFF8181FF0FC00FE00F40BD
:00000001FF
