:04000000ACEF0AF067
:101000000000000E256E1F50D8B409EF08F00BEF5A
:1010100008F029EF08F01F50D96EDA6ADF30E832A5
:10102000E832070B206E080E206019EF08F01BEF66
:1010300008F029EF08F01F50D96EDA6ADF50070B6D
:10104000206E040E206427EF08F029EF08F0F3EF7C
:1010500008F0010E256E13EF09F01F50D96EDA6A01
:10106000DF30E832E832070B206E010E216E202AB5
:101070003CEF08F0D8902136202E3AEF08F02150AE
:10108000FF0A226E1F50D96EDA6ADF50070B020D7D
:10109000F350150FD96EDA6ADECF23F0DDCF24F0DE
:1010A00023C0D9FF24C0DAFF2250DF16ABEF08F0CF
:1010B0001F50D96EDA6ADF30E832E832070B206E53
:1010C000010E216E202A67EF08F0D8902136202EDD
:1010D00065EF08F01F50D96EDA6ADF50070B020D7A
:1010E000F3500B0FD96EDA6ADECF22F0DDCF23F09A
:1010F00022C0D9FF23C0DAFF2150DF1213EF09F01D
:101100001F50D96EDA6ADF30E832E832070B206E02
:10111000010E216E202A8FEF08F0D8902136202E64
:101120008DEF08F02150FF0A226E1F50D96EDA6A47
:10113000DF50070B020DF3500B0FD96EDA6ADECFCA
:1011400023F0DDCF24F023C0D9FF24C0DAFF2250E2
:10115000DF1613EF09F01F50D96EDA6ADFBEB3EF66
:1011600008F0B6EF08F0010EB7EF08F0000E206EA1
:10117000216A2150000AD8B4C0EF08F029EF08F026
:101180002050000AD8B480EF08F0010AD8B458EF14
:1011900008F029EF08F01F50D96EDA6ADF30E83224
:1011A000E832070B206E010E216E202ADAEF08F0DC
:1011B000D8902136202ED8EF08F01F50D96EDA6A69
:1011C000DF50070B020DF350150FD96EDA6ADECF30
:1011D00022F0DDCF23F022C0D9FF23C0DAFF215057
:1011E000DF1213EF09F01F50D96EDA6ADFBCFBEF94
:1011F00008F0FEEF08F0010EFFEF08F0000E206E81
:10120000216A2150000AD8B408EF09F029EF08F04C
:101210002050000AD8B42DEF08F0010AD8B4CBEF63
:1012200008F029EF08F025501200000E266E1F501E
:10123000D8B41DEF09F01FEF09F03DEF09F01F5082
:10124000D96EDA6ADF30E832E832070B216E080E19
:1012500021602DEF09F02FEF09F03DEF09F01F504D
:10126000D96EDA6ADF50070B216E040E21643BEF62
:1012700009F03DEF09F0A4EF09F0010E266EB9EF79
:1012800009F01F50D96EDA6ADF30E832E832070B16
:10129000216E010E226E212A50EF09F0D8902236DD
:1012A000212E4EEF09F01F50D96EDA6ADF50070B7E
:1012B000020DF3500B0FD96EDA6ADECF23F0DDCFCB
:1012C00024F023C0D9FF24C0DAFF2250DF121F50C0
:1012D000D96EDA6A20B002D0DF9E01D0DF8EB9EF7E
:1012E00009F01F50D96EDA6ADF30E832E832070BB6
:1012F000216E010E226E212A80EF09F0D89022364D
:10130000212E7EEF09F02250FF0A236E1F50D96E66
:10131000DA6ADF50070B020DF3500B0FD96EDA6A51
:10132000DECF24F0DDCF25F024C0D9FF25C0DAFFC1
:101330002350DF161F50D96EDA6A20B002D0DF9E2C
:1013400001D0DF8EB9EF09F02050216E226A2250C1
:10135000000AD8B4AEEF09F03DEF09F02150000AC1
:10136000D8B471EF09F0010AD8B441EF09F03DEFAC
:1013700009F026501200020E266E000E7DEC0AF0D7
:10138000316E020E266E020E7DEC0AF0316E020EF8
:10139000266E010E7DEC0AF0316E020E276E000EF5
:1013A0001FEC0AF0020E276E020E4EEC0AF0020E3F
:1013B000276E010E4EEC0AF0030E2C6E8A0E2B6E79
:1013C000560EE82EFED72B2EFCD72C2EFAD7020E67
:1013D000276E000E4EEC0AF0020E276E020E4EEC47
:1013E0000AF0020E276E010E1FEC0AF0030E2C6E9F
:1013F0008A0E2B6E560EE82EFED72B2EFCD72C2EE7
:10140000FAD7020E276E000E4EEC0AF0020E276E7F
:10141000020E1FEC0AF0020E276E010E4EEC0AF0CF
:10142000030E2C6E8A0E2B6E560EE82EFED72B2E38
:10143000FCD72C2EFAD7CDEF09F000EF00F0296E83
:10144000080E296026EF0AF028EF0AF030EF0AF0C4
:10145000040E27642EEF0AF030EF0AF032EF0AF0A4
:101460004DEF0AF02FC02AF02A502718F80B271842
:101470002A6E29C028F02846284628462A502818CF
:10148000C70B28182A6E2A9C2A8E2A0E1F6E000E61
:101490002ABE010E206E15EC09F01200296E080E0E
:1014A000296055EF0AF057EF0AF05FEF0AF0040EDB
:1014B00027645DEF0AF05FEF0AF061EF0AF07CEF5E
:1014C0000AF02EC02AF02A502718F80B27182A6E87
:1014D00029C028F02846284628462A502818C70B35
:1014E00028182A6E2A9C2A9E2A0E1F6E000E2ABEDB
:1014F000010E206E15EC09F01200296E080E29600D
:1015000084EF0AF086EF0AF08EEF0AF0040E2664EC
:101510008CEF0AF08EEF0AF092EF0AF0010E286EBF
:10152000AAEF0AF030C02AF02A502618F80B261825
:101530002A6E29C027F02746274627462A50271813
:10154000C70B27182A6E2A9C2A9E2A0E1F6E01ECB2
:1015500008F0286E285012008A0EF66E150EF76EEF
:10156000000EF86E00EE01F010EE1EF00900F5CF4F
:10157000EEFFE550E150FAE1306A2F6A2E6A2D6ADB
:10158000000EF86E0001BBEF09F0800F810F820F93
:10159000830F840F890F8A0F8B0F8C0F8D0F920F83
:0815A000930F940F950F960FB5
:020000040030CA
:0E000000FF02091EFF8181FF0FC00FE00F40BD
:00000001FF
