:0400000056EF0BF0BC
:101000000000000E296E2350D8B409EF08F00BEF52
:1010100008F029EF08F02350D96EDA6ADF30E832A1
:10102000E832070B246E080E246019EF08F01BEF5E
:1010300008F029EF08F02350D96EDA6ADF50070B69
:10104000246E040E246427EF08F029EF08F0F3EF74
:1010500008F0010E296E13EF09F02350D96EDA6AF9
:10106000DF30E832E832070B246E010E256E242AA9
:101070003CEF08F0D8902536242E3AEF08F02550A2
:10108000FF0A266E2350D96EDA6ADF50070B020D75
:10109000F350150FD96EDA6ADECF27F0DDCF28F0D6
:1010A00027C0D9FF28C0DAFF2650DF16ABEF08F0C3
:1010B0002350D96EDA6ADF30E832E832070B246E4B
:1010C000010E256E242A67EF08F0D8902536242ECD
:1010D00065EF08F02350D96EDA6ADF50070B020D76
:1010E000F3500B0FD96EDA6ADECF26F0DDCF27F092
:1010F00026C0D9FF27C0DAFF2550DF1213EF09F011
:101100002350D96EDA6ADF30E832E832070B246EFA
:10111000010E256E242A8FEF08F0D8902536242E54
:101120008DEF08F02550FF0A266E2350D96EDA6A3B
:10113000DF50070B020DF3500B0FD96EDA6ADECFCA
:1011400027F0DDCF28F027C0D9FF28C0DAFF2650CE
:10115000DF1613EF09F02350D96EDA6ADFBEB3EF62
:1011600008F0B6EF08F0010EB7EF08F0000E246E9D
:10117000256A2550000AD8B4C0EF08F029EF08F01E
:101180002450000AD8B480EF08F0010AD8B458EF10
:1011900008F029EF08F02350D96EDA6ADF30E83220
:1011A000E832070B246E010E256E242ADAEF08F0D0
:1011B000D8902536242ED8EF08F02350D96EDA6A5D
:1011C000DF50070B020DF350150FD96EDA6ADECF30
:1011D00026F0DDCF27F026C0D9FF27C0DAFF255043
:1011E000DF1213EF09F02350D96EDA6ADFBCFBEF90
:1011F00008F0FEEF08F0010EFFEF08F0000E246E7D
:10120000256A2550000AD8B408EF09F029EF08F044
:101210002450000AD8B42DEF08F0010AD8B4CBEF5F
:1012200008F029EF08F029501200000E2A6E235012
:10123000D8B41DEF09F01FEF09F03DEF09F023507E
:10124000D96EDA6ADF30E832E832070B256E080E15
:1012500025602DEF09F02FEF09F03DEF09F0235045
:10126000D96EDA6ADF50070B256E040E25643BEF5A
:1012700009F03DEF09F0A4EF09F0010E2A6EB9EF75
:1012800009F02350D96EDA6ADF30E832E832070B12
:10129000256E010E266E252A50EF09F0D8902636CD
:1012A000252E4EEF09F02350D96EDA6ADF50070B76
:1012B000020DF3500B0FD96EDA6ADECF27F0DDCFC7
:1012C00028F027C0D9FF28C0DAFF2650DF122350AC
:1012D000D96EDA6A24B002D0DF9E01D0DF8EB9EF7A
:1012E00009F02350D96EDA6ADF30E832E832070BB2
:1012F000256E010E266E252A80EF09F0D89026363D
:10130000252E7EEF09F02650FF0A276E2350D96E56
:10131000DA6ADF50070B020DF3500B0FD96EDA6A51
:10132000DECF28F0DDCF29F028C0D9FF29C0DAFFB1
:101330002750DF162350D96EDA6A24B002D0DF9E20
:1013400001D0DF8EB9EF09F02450256E266A2650B1
:10135000000AD8B4AEEF09F03DEF09F02550000ABD
:10136000D8B471EF09F0010AD8B441EF09F03DEFAC
:1013700009F02A501200000E2B6E2950D8B4C3EF8A
:1013800009F0C5EF09F020EF0AF02A50D8A4CBEFFE
:1013900009F0CDEF09F0CFEF09F020EF0AF029C0F6
:1013A00023F02B0E246E21EC0AF02950D96EDA6A54
:1013B000010ED926DFB2DFEF09F0E1EF09F000EF0F
:1013C0000AF02B04D8A4E7EF09F0E9EF09F0EFEFFA
:1013D00009F02A50D96EDA6ADF6A20EF0AF02B5042
:1013E000D8A4F5EF09F0F7EF09F0FEEF09F02A5065
:1013F000D96EDA6A010EDF6E20EF0AF020EF0AF0F4
:101400002950D96EDA6A010ED926DFA20AEF0AF056
:101410000CEF0AF0FEEF09F02B04D8A412EF0AF04B
:1014200014EF0AF016EF0AF0F7EF09F02B50D8A4EA
:101430001CEF0AF01EEF0AF0FEEF09F0E9EF09F0E9
:1014400012002350D8B427EF0AF029EF0AF04FEF2B
:101450000AF02450D8B42FEF0AF031EF0AF04FEF22
:101460000AF02350D96EDA6ADF30E832E832070B2F
:10147000256E080E25603FEF0AF041EF0AF04FEFAE
:101480000AF02350D96EDA6ADF50070B256E040E7E
:1014900025644DEF0AF04FEF0AF051EF0AF07BEFB1
:1014A0000AF02450D96EDA6A2350E16EE26AE7301E
:1014B000E832E832070B256E2350E16EE26AE7500E
:1014C000070B020DF350010FE16EE26AE6CF26F042
:1014D000E5CF27F026C0E1FF27C0E2FFE750286EE6
:1014E000252A75EF0AF0D8902832252E73EF0AF0DE
:1014F0002850010BDF6E1200210E2A6E81EC0BF0DA
:10150000020E2A6E000E2BEC0BF0020E2A6E010E5C
:101510002BEC0BF0020E2A6E020E2BEC0BF0010EE0
:101520002F6E210E296E2F0E2A6EBBEC09F02F5064
:10153000D8A49DEF0AF09FEF0AF0B0EF0AF0020E78
:101540002B6E000ECDEC0AF0020E2B6E010ECDECD0
:101550000AF0020E2B6E020ECDEC0AF091EF0AF0AB
:101560002F04D8A4B6EF0AF0B8EF0AF0C9EF0AF0DA
:10157000020E2B6E000EFCEC0AF0020E2B6E010E1A
:10158000FCEC0AF0020E2B6E020EFCEC0AF091EF5E
:101590000AF091EF0AF000EF00F02D6E080E2D60BA
:1015A000D4EF0AF0D6EF0AF0DEEF0AF0040E2B6457
:1015B000DCEF0AF0DEEF0AF0E0EF0AF0FBEF0AF0F2
:1015C00033C02EF02E502B18F80B2B182E6E2DC07A
:1015D0002CF02C462C462C462E502C18C70B2C18C1
:1015E0002E6E2E9C2E8E2E0E236E000E2EBE010E03
:1015F000246E15EC09F012002D6E080E2D6003EF1D
:101600000BF005EF0BF00DEF0BF0040E2B640BEF5E
:101610000BF00DEF0BF00FEF0BF02AEF0BF032C0D9
:101620002EF02E502B18F80B2B182E6E2DC02CF0F0
:101630002C462C462C462E502C18C70B2C182E6EE0
:101640002E9C2E9E2E0E236E000E2EBE010E246E9C
:1016500015EC09F012002C6E080E2C6032EF0BF026
:1016600034EF0BF03CEF0BF0040E2A643AEF0BF072
:101670003CEF0BF03EEF0BF055EF0BF034C02DF0CC
:101680002D502A18F80B2A182D6E2CC02BF02B4643
:101690002B462B462D502B18C70B2B182D6E2D9C2F
:1016A0002D9E2D0E236E01EC08F01200E00EF66E5A
:1016B000160EF76E000EF86E00EE01F010EE22F03E
:1016C0000900F5CFEEFFE550E150FAE1346A336AE4
:1016D000326A316A306A000EF86E00017CEF0AF05F
:1016E000800F810F820F830F840F890F8A0F8B0F5A
:1016F0008C0F8D0F920F930F940F950F960F1A0169
:10170000A2032A50D8A487EF0BF089EF0BF08BEFE0
:101710000BF08FEF0BF02AC023F001EC08F0120061
:020000040030CA
:0E000000FF02091EFF8181FF0FC00FE00F40BD
:00000001FF
